:020000040800F2
:1000000000280020910B00081109000817090008BA
:100010001D09000823090008290900080000000044
:100020000000000000000000000000002F09000890
:100030003B090008000000004709000853090008B8
:10004000D90B0008D90B0008D90B0008D90B000800
:10005000D90B0008D90B0008D90B0008D90B0008F0
:10006000D90B0008D90B0008D90B0008D90B0008E0
:10007000D90B0008D90B0008D90B0008D90B0008D0
:10008000D90B0008D90B0008D90B0008D90B0008C0
:10009000D90B0008D90B0008D90B0008D90B0008B0
:1000A000D90B0008D90B0008D90B0008D90B0008A0
:1000B00061090008D90B000800000000D90B0008F6
:1000C000D90B00080000000000000000D90B000858
:1000D0000000000075090008D90B000800000000AE
:1000E000D90B0008D90B0008D90B0008000000004C
:1000F0000000000000000000000000000000000000
:0C01000000000000000000005FF808F1A3
:10010C0010B5054C237833B9044B13B10448AFF345
:10011C0000800123237010BD70000020000000003F
:10012C009C3E000808B5034B1BB103490348AFF3D1
:10013C00008008BD00000000740000209C3E0008F8
:10014C0080B500AF00F044FD00F034F800F0E4F8A6
:10015C0000F06CF800F0B6F8104801F065FD00F006
:10016C003DF9322214210E4800F066F96422642114
:10017C000C4800F061F9962232210B4800F05CF932
:10018C00C8220021094800F057F9FA22C821084872
:10019C0000F052F900F004FAFCE700BFE800002080
:1001AC00C90A0008190B0008410B0008690B00086C
:1001BC00F10A000880B590B000AF07F118032822AF
:1001CC000021184602F0FCFE3B1D00221A605A600A
:1001DC009A60DA601A610223BB610123BB621023AF
:1001EC00FB6200237B6307F11803184601F0BEF88D
:1001FC000346002B01D000F0EBF80F237B600023AB
:10020C00BB600023FB6000233B6100237B613B1D33
:10021C000021184601F02AFB0346002B01D000F008
:10022C00D7F800BF4037BD4680BD000080B586B012
:10023C0000AF07F1080300221A605A609A60DA6076
:10024C003B4600221A605A601D4B4FF080421A60E8
:10025C001B4B41F63F725A60194B00229A60184BA7
:10026C000922DA60164B00221A61154B00229A61A2
:10027C00134801F089FC0346002B01D000F0A8F8CC
:10028C004FF48053BB6007F1080319460C4801F08A
:10029C0007FE0346002B01D000F09AF800233B60C8
:1002AC0000237B603B461946054801F0DFFF0346FF
:1002BC00002B01D000F08CF800BF1837BD4680BD74
:1002CC00E800002080B500AF114B124A1A60104BA9
:1002DC004FF4E1325A600E4B00229A600C4B002214
:1002EC00DA600B4B00221A61094B0C225A61084B45
:1002FC0000229A61064B0022DA61054802F020F8D0
:10030C000346002B01D000F063F800BF80BD00BF96
:10031C00A00000200038014080B586B000AF07F186
:10032C00080300221A605A609A60DA60204B9B69BD
:10033C001F4A43F0040393611D4B9B6903F00403B4
:10034C007B607B681A4B9B69194A43F008039361E5
:10035C00174B9B6903F008033B603B6800223E216E
:10036C00144800F0D1FF00220121134800F0CCFF0B
:10037C003E23BB600123FB6000233B6102237B61B6
:10038C0007F1080319460B4800F044FE0123BB603B
:10039C000123FB6000233B6102237B6107F108030F
:1003AC001946054800F036FE00BF1837BD4680BD23
:1003BC000010024000080140000C014080B582B0E2
:1003CC0000AF786000F09CF800BF0837BD4680BDD8
:1003DC0080B400AF72B600BFFEE7000080B500AF7E
:1003EC0000F09EF9114B00221A70012202211048D4
:1003FC0000F08AFF012204210D4800F085FF012244
:10040C0008210B4800F080FF01221021084800F061
:10041C007BFF01222021064800F076FF01220121FA
:10042C00044800F071FF00BF80BD00BF8C000020AD
:10043C0000080140000C014080B485B000AFF860AA
:10044C00B9607A602B4B1B780A2B05D12A4B66229C
:10045C001A60294B1B6848E0264B1B78274A1B0166
:10046C001344FA681A60234B1B78244A1B0113446B
:10047C000433BA681A601F4B1B78204A1B011344C3
:10048C0008337A681A601B4B1B781C4A1B011344F7
:10049C000C3300221A70174B1B781846154B197821
:1004AC00164A030113440D330A461A70114B1B787C
:1004BC00124A1B0113440E3300221A700D4B1B7889
:1004CC0018467B68002B0CBF01230023D9B20B4AC2
:1004DC00030113440F330A461A70064B1B78013381
:1004EC00DAB2044B1A70034B1B7818461437BD460E
:1004FC0080BC70478C000020900000203001002050
:10050C0080B483B000AF00237B603EE0234A7B685D
:10051C001B0113440E331B7883F00103DBB2002B59
:10052C0030D01E4A7B681B01134404331B68002B1C
:10053C001BD11A4A7B681B0113440C331B78013303
:10054C00D9B2164A7B681B0113440C330A461A7045
:10055C00124A7B681B01134408331A680F497B68E5
:10056C001B010B4404331A600CE00C4A7B681B0122
:10057C00134404331B685A1E08497B681B010B4447
:10058C0004331A607B6801337B607B68092BBDDD0B
:10059C0000BF00BF0C37BD4680BC70473001002047
:1005AC0080B582B000AF00237B603BE0214A7B68C2
:1005BC001B0113440E331B7883F00103DBB2002BB9
:1005CC002DD01C4A7B681B0113440C331B78002B69
:1005DC0025D0184A7B681B0113440C331B78013B54
:1005EC00D9B2144A7B681B0113440C330A461A70A7
:1005FC00104A7B681B0113441B6898470D4A7B68A3
:10060C001B0113440F331B78002B08D0094A7B685D
:10061C001B0113440D331B78184600F00DF87B6852
:10062C0001337B607B68092BC0DD00BF00BF08373E
:10063C00BD4680BD3001002090B484B000AF78601E
:10064C007B68092B05D9334B65221A60314B1B682B
:10065C005AE0314A7B681B0113440E331B78002B84
:10066C0006D12D4A7B681B0113441B68002B05D156
:10067C00284B65221A60274B1B6845E07B68FB60A2
:10068C0018E0FB6801332449FA6812011144224A2C
:10069C001B0113440C460FCB84E80F00FB68D9B246
:1006AC001D4AFB681B0113440D330A461A70FB6884
:1006BC000133FB60FB68082BE3DD174B0022C3F80A
:1006CC009020154B0022C3F89420134B0022C3F842
:1006DC009820114B002283F89C200F4B002283F8AA
:1006EC009D200D4B012283F89E200B4B002283F89A
:1006FC009F200A4B1B78002B05D0084B1B78013B25
:10070C00DAB2064B1A707B6818461037BD4690BC9F
:10071C00704700BF90000020300100208C000020AA
:10072C0080B483B000AF00237B6032E01E4A7B684C
:10073C001B01134400221A601B4A7B681B011344E3
:10074C00043300221A60184A7B681B0113440833D7
:10075C0000221A60144A7B681B0113440C330022DC
:10076C001A70114A7B681B0113440D3300221A7056
:10077C000D4A7B681B0113440E3301221A700A4A7E
:10078C007B681B0113440F3300221A707B68013302
:10079C007B607B68092BC9DD044B00221A7000BFFB
:1007AC000C37BD4680BC7047300100208C00002007
:1007BC0080B485B000AF154B9B69144A43F001031C
:1007CC009361124B9B6903F00103BB60BB680F4B39
:1007DC00DB690E4A43F08053D3610C4BDB6903F0A9
:1007EC0080537B607B680A4B5B68FB60FB6823F083
:1007FC00E063FB60FB6843F08063FB60044AFB68CA
:10080C00536000BF1437BD4680BC704700100240D7
:10081C000000014080B584B000AF78607B681B6835
:10082C00B3F1804F13D10C4BDB690B4A43F001033E
:10083C00D361094BDB6903F00103FB60FB68002209
:10084C0000211C2000F0FDFA1C2000F016FB00BF5C
:10085C001037BD4680BD00BF0010024080B588B087
:10086C0000AF786007F1100300221A605A609A609A
:10087C00DA607B681B68204A934239D11F4B9B6915
:10088C001E4A43F4804393611C4B9B6903F48043E1
:10089C00FB60FB68194B9B69184A43F00403936196
:1008AC00164B9B6903F00403BB60BB684FF40073E9
:1008BC003B6102237B610323FB6107F110031946A3
:1008CC000F4800F0A7FB4FF480633B6100237B6172
:1008DC000023BB6107F110031946094800F09AFB8D
:1008EC0000220021252000F0ACFA252000F0C5FAEA
:1008FC0000BF2037BD4680BD0038014000100240CB
:10090C000008014080B400AFFEE780B400AFFEE702
:10091C0080B400AFFEE780B400AFFEE780B400AF58
:10092C00FEE780B400AF00BFBD4680BC704780B40A
:10093C0000AF00BFBD4680BC704780B400AF00BFA5
:10094C00BD4680BC704780B500AF00F087F900BF92
:10095C0080BD000080B500AF024801F0B1F900BFC6
:10096C0080BD00BFE800002080B500AF024801F058
:10097C00C3FD00BF80BD00BFA000002080B586B0C5
:10098C0000AFF860B9607A6000237B610AE0AFF3D6
:10099C0000800146BB685A1CBA60CAB21A707B69E7
:1009AC0001337B617A697B689A42F0DB7B6818467D
:1009BC001837BD4680BD80B483B000AF78604FF06F
:1009CC00FF3318460C37BD4680BC704780B483B0EB
:1009DC0000AF786039603B684FF400525A600023D6
:1009EC0018460C37BD4680BC704780B483B000AF4E
:1009FC007860012318460C37BD4680BC704780B424
:100A0C0085B000AFF860B9607A60002318461437DF
:100A1C00BD4680BC7047000080B586B000AF7860E2
:100A2C00144A154BD31A7B617B693B61134B1B68D2
:100A3C00002B02D1114B124A1A60104B1A687B68BA
:100A4C0013443A699A4207D202F090FA03460C22F8
:100A5C001A604FF0FF3309E0084B1B68FB60074B33
:100A6C001A687B681344054A1360FB6818461837EC
:100A7C00BD4680BD0028002000040000940000202A
:100A8C00E801002080B400AF00BFBD4680BC7047B9
:100A9C0080B584B000AFF860B9607A607B689AB2B8
:100AAC004FF0FF33B968044801F09AFC7B68184694
:100ABC001037BD4680BD00BFA000002080B500AF40
:100ACC000221064800F038FC00F0DAF8034619461B
:100ADC00034802F07DFA00BF80BD00BF0008014052
:100AEC00B43E000880B500AF2021064800F024FC7D
:100AFC0000F0C6F803461946034802F069FA00BF35
:100B0C0080BD00BF00080140D03E000880B500AF9A
:100B1C000421064800F010FC00F0B2F80346194618
:100B2C00034802F055FA00BF80BD00BF0008014029
:100B3C00EC3E000880B500AF0821064800F0FCFB35
:100B4C0000F09EF803461946034802F041FA00BF34
:100B5C0080BD00BF00080140083F000880B500AF11
:100B6C001021064800F0E8FB00F08AF8034619460D
:100B7C00034802F02DFA00BF80BD00BF0008014001
:100B8C00243F0008FFF77EFF0B480C490C4A00235A
:100B9C0002E0D458C4500433C4188C42F9D3094A27
:100BAC00094C002301E013600432A242FBD302F093
:100BBC00E3F9FFF7C5FA7047000000207000002031
:100BCC000C40000870000020E4010020FEE700004B
:100BDC0080B500AF084B1B68074A43F01003136045
:100BEC00032000F023F90F2000F008F8FFF7E0FDD8
:100BFC000023184680BD00BF0020024080B582B0A3
:100C0C0000AF7860124B1A68124B1B7819464FF4E0
:100C1C007A73B3FBF1F3B2FBF3F3184600F03BF934
:100C2C000346002B01D001230EE07B680F2B0AD862
:100C3C00002279684FF0FF3000F003F9064A7B6818
:100C4C001360002300E0012318460837BD4680BD21
:100C5C0000000020080000200400002080B400AF39
:100C6C00054B1B781A46054B1B681344034A13604B
:100C7C0000BFBD4680BC704708000020D00100209A
:100C8C0080B400AF024B1B681846BD4680BC704751
:100C9C00D001002080B485B000AF78607B6803F091
:100CAC000703FB600C4BDB68BB60BA684FF6FF03B5
:100CBC001340BB60FB681A02BB68134343F0BF636D
:100CCC0043F40033BB60044ABB68D36000BF1437E5
:100CDC00BD4680BC704700BF00ED00E080B400AFA3
:100CEC00044BDB681B0A03F007031846BD4680BCA7
:100CFC00704700BF00ED00E080B483B000AF034646
:100D0C00FB7197F90730002B0BDBFB7903F01F020B
:100D1C00064997F907305B09012000FA02F241F805
:100D2C00232000BF0C37BD4680BC704700E100E0BB
:100D3C0080B483B000AF03463960FB7197F907307C
:100D4C00002B0ADB3B68DAB20C4997F90730120129
:100D5C00D2B20B4483F800230AE03B68DAB20849AC
:100D6C00FB7903F00F03043B1201D2B20B441A7649
:100D7C0000BF0C37BD4680BC704700BF00E100E0EF
:100D8C0000ED00E080B489B000AFF860B9607A6023
:100D9C00FB6803F00703FB61FB69C3F10703042B3A
:100DAC0028BF0423BB61FB690433062B02D9FB6902
:100DBC00033B00E000237B614FF0FF32BB6902FA7A
:100DCC0003F3DA43BB681A407B699A404FF0FF315A
:100DDC007B6901FA03F3D9437B680B401343184634
:100DEC002437BD4680BC704780B582B000AF7860B8
:100DFC007B68013BB3F1807F01D301230FE00A4AEA
:100E0C007B68013B53600F214FF0FF30FFF790FFE1
:100E1C00054B00229A60044B07221A6000231846E7
:100E2C000837BD4680BD00BF10E000E080B582B041
:100E3C0000AF78607868FFF72DFF00BF0837BD461C
:100E4C0080BD80B586B000AF0346B9607A60FB7395
:100E5C0000237B61FFF742FF78617A68B968786993
:100E6C00FFF790FF024697F90F3011461846FFF72F
:100E7C005FFF00BF1837BD4680BD80B582B000AFA4
:100E8C000346FB7197F907301846FFF735FF00BF93
:100E9C000837BD4680BD80B582B000AF78607868F9
:100EAC00FFF7A2FF034618460837BD4680BD80B445
:100EBC0085B000AF78600023FB737B6893F821301A
:100ECC00DBB2022B08D07B6804229A637B68002279
:100EDC0083F82020012320E07B681B681A687B685C
:100EEC001B6822F00E021A607B681B681A687B680C
:100EFC001B6822F001021A607B681A6C7B68DB6B42
:100F0C00012101FA02F25A607B68012283F8212048
:100F1C007B68002283F82020FB7B18461437BD46E3
:100F2C0080BC704780B584B000AF78600023FB7341
:100F3C007B6893F82130DBB2022B05D07B6804224E
:100F4C009A630123FB7351E07B681B681A687B680A
:100F5C001B6822F00E021A607B681B681A687B689B
:100F6C001B6822F001021A607B681B68224A9342BC
:100F7C0029D07B681B68214A934222D07B681B686E
:100F8C001F4A93421AD07B681B681E4A934212D0A8
:100F9C007B681B681C4A93420AD07B681B681B4AFF
:100FAC00934202D14FF480130EE04FF080730BE0AC
:100FBC004FF4803308E04FF4805305E04FF4807316
:100FCC0002E0102300E00123114A53607B680122E8
:100FDC0083F821207B68002283F820207B685B6BE0
:100FEC00002B03D07B685B6B78689847FB7B1846BB
:100FFC001037BD4680BD00BF080002401C000240F7
:10100C003000024044000240580002406C00024094
:10101C000000024080B48BB000AF786039600023D0
:10102C007B6200233B6248E101227B6A02FA03F3F4
:10103C00FB613B681B68FA691340BB61BA69FB69C9
:10104C009A4240F037813B685B68A34A93425ED07A
:10105C00A14A934275D8A14A934258D09F4A9342D1
:10106C006FD89F4A934252D09D4A934269D89D4A69
:10107C0093424CD09B4A934263D89B4A934246D0AE
:10108C00994A93425DD8122B2AD8122B59D801A217
:10109C0052F823F01B110008F51000080711000886
:1010AC00491100084F1100084F1100084F1100089A
:1010BC004F1100084F1100084F1100084F11000884
:1010CC004F1100084F1100084F1100084F11000874
:1010DC004F1100084F110008FD10000811110008F5
:1010EC00824A934213D02CE03B68DB683B6229E0D8
:1010FC003B68DB6804333B6224E03B68DB68083305
:10110C003B621FE03B68DB680C333B621AE03B68D8
:10111C009B68002B02D104233B6213E03B689B6865
:10112C00012B05D108233B627B68FA691A6109E03F
:10113C0008233B627B68FA695A6103E000233B6237
:10114C0000E000BFBB69FF2B01D87B6801E07B6826
:10115C0004337B61BB69FF2B02D87B6A9B0002E0E6
:10116C007B6A083B9B003B617B691A680F213B69DA
:10117C0001FA03F3DB431A40396A3B6901FA03F3C2
:10118C001A437B691A603B685B6803F08053002B41
:10119C0000F09080564B9B69554A43F001039361D4
:1011AC00534B9B6903F00103BB60BB68514A7B6ADC
:1011BC009B08023352F82330FB607B6A03F0030375
:1011CC009B000F2202FA03F3DB43FA681340FB6027
:1011DC007B68494A93420DD07B68484A934207D0BA
:1011EC007B68474A934201D1022304E0032302E0C7
:1011FC00012300E000237A6A02F00302920093407C
:10120C00FA681343FB603B497B6A9B080233FA681C
:10121C0041F823203B685B6803F48013002B06D055
:10122C00384B9A683749BB6913438B6006E0354BE2
:10123C009A68BB69DB43334913408B603B685B683E
:10124C0003F40013002B06D02E4BDA682D49BB6932
:10125C001343CB6006E02B4BDA68BB69DB432949AF
:10126C001340CB603B685B6803F40033002B06D063
:10127C00244B5A682349BB6913434B6006E0214B4E
:10128C005A68BB69DB431F4913404B603B685B6882
:10129C0003F48033002B06D01A4B1A681949BB692A
:1012AC0013430B6006E0174B1A68BB69DB43154907
:1012BC0013400B607B6A01337B623B681A687B6A64
:1012CC0022FA03F3002B7FF4AFAE00BF00BF2C3724
:1012DC00BD4680BC704700BF0000321000003110CA
:1012EC00000022100000211000001210000011104C
:1012FC00001002400000014000080140000C0140B9
:10130C00001001400004014080B483B000AF78604D
:10131C000B467B8013467B707B78002B03D07A883E
:10132C007B681A6103E07B881A047B681A6100BF32
:10133C000C37BD4680BC704780B485B000AF786078
:10134C000B467B807B68DB68FB607A88FB6813400C
:10135C001A04FB68D9437B880B401A437B681A61DB
:10136C0000BF1437BD4680BC7047000080B586B006
:10137C0000AF78607B68002B01D101236CE27B68A5
:10138C001B6803F00103002B00F08780924B5B6815
:10139C0003F00C03042B0CD08F4B5B6803F00C0395
:1013AC00082B12D18C4B5B6803F48033B3F5803F70
:1013BC000BD1894B1B6803F40033002B6CD07B687A
:1013CC005B68002B68D1012346E27B685B68B3F550
:1013DC00803F06D1804B1B687F4A43F480331360F7
:1013EC002EE07B685B68002B0CD17B4B1B687A4A28
:1013FC0023F480331360784B1B68774A23F48023E3
:10140C0013601DE07B685B68B3F5A02F0CD1724BA9
:10141C001B68714A43F4802313606F4B1B686E4A40
:10142C0043F4803313600BE06B4B1B686A4A23F464
:10143C0080331360684B1B68674A23F48023136066
:10144C007B685B68002B13D0FFF71AFC386108E04F
:10145C00FFF716FC02463B69D31A642B01D9032310
:10146C00FAE15D4B1B6803F40033002BF0D014E061
:10147C00FFF706FC386108E0FFF702FC02463B6907
:10148C00D31A642B01D90323E6E1534B1B6803F4F5
:10149C000033002BF0D100E000BF7B681B6803F029
:1014AC000203002B63D04C4B5B6803F00C03002B46
:1014BC000BD0494B5B6803F00C03082B1CD1464B3B
:1014CC005B6803F48033002B16D1434B1B6803F08D
:1014DC000203002B05D07B681B69012B01D0012373
:1014EC00BAE13D4B1B6823F0F8027B685B69DB00BB
:1014FC00394913430B603AE07B681B69002B20D001
:10150C00364B01221A60FFF7BBFB386108E0FFF78E
:10151C00B7FB02463B69D31A022B01D903239BE18B
:10152C002D4B1B6803F00203002BF0D02A4B1B68D9
:10153C0023F0F8027B685B69DB00274913430B60DF
:10154C0015E0264B00221A60FFF79AFB386108E081
:10155C00FFF796FB02463B69D31A022B01D90323F2
:10156C007AE11D4B1B6803F00203002BF0D17B6862
:10157C001B6803F00803002B3AD07B689B69002B97
:10158C0019D0174B01221A60FFF77AFB386108E07B
:10159C00FFF776FB02463B69D31A022B01D90323D2
:1015AC005AE10D4B5B6A03F00203002BF0D00120D3
:1015BC0000F0CCFA1CE00A4B00221A60FFF760FB2B
:1015CC0038610FE0FFF75CFB02463B69D31A022B34
:1015DC0008D9032340E100BF001002400000424242
:1015EC00800442429E4B5B6A03F00203002BE9D15C
:1015FC007B681B6803F00403002B00F0A68000231B
:10160C00FB75974BDB6903F08053002B0DD1944B8A
:10161C00DB69934A43F08053D361914BDB6903F050
:10162C008053BB60BB680123FB758E4B1B6803F4B6
:10163C008073002B18D18B4B1B688A4A43F4807340
:10164C001360FFF71DFB386108E0FFF719FB02463A
:10165C003B69D31A642B01D90323FDE0814B1B6832
:10166C0003F48073002BF0D07B68DB68012B06D170
:10167C007B4B1B6A7A4A43F0010313622DE07B68B3
:10168C00DB68002B0CD1764B1B6A754A23F00103E7
:10169C001362734B1B6A724A23F0040313621CE03F
:1016AC007B68DB68052B0CD16D4B1B6A6C4A43F0D5
:1016BC00040313626A4B1B6A694A43F00103136209
:1016CC000BE0674B1B6A664A23F001031362644B01
:1016DC001B6A634A23F0040313627B68DB68002BEC
:1016EC0015D0FFF7CDFA38610AE0FFF7C9FA0246C8
:1016FC003B69D31A41F28832934201D90323ABE000
:10170C00574B1B6A03F00203002BEED014E0FFF7DB
:10171C00B7FA38610AE0FFF7B3FA02463B69D31A0D
:10172C0041F28832934201D9032395E04C4B1B6A5A
:10173C0003F00203002BEED1FB7D012B05D1484BAE
:10174C00DB69474A23F08053D3617B68DB69002B4C
:10175C0000F08180424B5B6803F00C03082B61D0D6
:10176C007B68DB69022B46D13F4B00221A60FFF7E6
:10177C0087FA386108E0FFF783FA02463B69D31A0F
:10178C00022B01D9032367E0354B1B6803F0007370
:10179C00002BF0D17B681B6AB3F5803F08D1304B2E
:1017AC005B6823F400327B689B682D4913434B60C4
:1017BC002B4B5B6823F474127B68196A7B685B6A39
:1017CC000B43274913434B60274B01221A60FFF749
:1017DC0057FA386108E0FFF753FA02463B69D31A0F
:1017EC00022B01D9032337E01D4B1B6803F0007358
:1017FC00002BF0D02FE01C4B00221A60FFF740FAB0
:10180C00386108E0FFF73CFA02463B69D31A022B19
:10181C0001D9032320E0124B1B6803F00073002B4B
:10182C00F0D118E07B68DB69012B01D1012313E0B7
:10183C000B4B5B68FB60FB6803F480327B681B6AB4
:10184C009A4206D1FB6803F470127B685B6A9A4279
:10185C0001D0012300E0002318461837BD4680BD97
:10186C0000100240007000406000424280B584B01D
:10187C0000AF786039607B68002B01D10123D0E088
:10188C006A4B1B6803F007033A689A4210D9674BFE
:10189C001B6823F0070265493B6813430B60634BDD
:1018AC001B6803F007033A689A4201D00123B8E0A1
:1018BC007B681B6803F00203002B20D07B681B683D
:1018CC0003F00403002B05D0594B5B68584A43F4D2
:1018DC00E06353607B681B6803F00803002B05D0A2
:1018EC00534B5B68524A43F460535360504B5B68F4
:1018FC0023F0F0027B689B684D4913434B607B6877
:10190C001B6803F00103002B40D07B685B68012B44
:10191C0007D1474B1B6803F40033002B15D101236F
:10192C007FE07B685B68022B07D1414B1B6803F09F
:10193C000073002B09D1012373E03D4B1B6803F0AE
:10194C000203002B01D101236BE0394B5B6823F0C0
:10195C0003027B685B68364913434B60FFF790F9D1
:10196C00F8600AE0FFF78CF90246FB68D31A41F2E3
:10197C008832934201D9032353E02D4B5B6803F06B
:10198C000C027B685B689B009A42EBD1274B1B686F
:10199C0003F007033A689A4210D2244B1B6823F0D9
:1019AC00070222493B6813430B60204B1B6803F072
:1019BC0007033A689A4201D0012332E07B681B6826
:1019CC0003F00403002B08D0194B5B6823F4E0628E
:1019DC007B68DB68164913434B607B681B6803F01C
:1019EC000803002B09D0124B5B6823F460527B6810
:1019FC001B69DB000E4913434B6000F021F80246D3
:101A0C000B4B5B681B0903F00F030A49CB5C22FAF2
:101A1C0003F3094A1360094B1B681846FFF7EEF8ED
:101A2C00002318461037BD4680BD00BF0020024081
:101A3C0000100240403F000800000020040000207D
:101A4C0080B487B000AF0023FB600023BB60002391
:101A5C007B6100237B6000233B611E4B5B68FB605A
:101A6C00FB6803F00C03042B02D0082B03D027E0F7
:101A7C00194B3B6127E0FB689B0C03F00F03174AE3
:101A8C00D35C7B60FB6803F48033002B10D0114BCC
:101A9C005B685B0C03F00103114AD35CBB607B6891
:101AAC000D4A02FB03F2BB68B2FBF3F37B6104E06B
:101ABC007B680C4A02FB03F37B617B693B6102E0B0
:101ACC00054B3B6100BF3B6918461C37BD4680BCCB
:101ADC00704700BF0010024000127A00583F000807
:101AEC00683F000800093D0080B400AF024B1B6842
:101AFC001846BD4680BC70470000002080B500AF82
:101B0C00FFF7F2FF0246054B5B681B0A03F0070365
:101B1C000349CB5C22FA03F3184680BD0010024047
:101B2C00503F000880B500AFFFF7DEFF0246054BC3
:101B3C005B68DB0A03F007030349CB5C22FA03F36F
:101B4C00184680BD00100240503F000880B485B09C
:101B5C0000AF78600A4B1B680A4AA2FB03235B0A9E
:101B6C007A6802FB03F3FB6000BFFB685A1EFA6045
:101B7C00002BF9D100BF00BF1437BD4680BC7047A5
:101B8C0000000020D34D621080B582B000AF7860A9
:101B9C007B68002B01D1012341E07B6893F83D3039
:101BAC00DBB2002B06D17B68002283F83C207868DE
:101BBC00FEF730FE7B68022283F83D207B681A68B2
:101BCC007B6804331946104600F056FA7B680122F4
:101BDC0083F846207B68012283F83E207B68012233
:101BEC0083F83F207B68012283F840207B68012228
:101BFC0083F841207B68012283F842207B68012214
:101C0C0083F843207B68012283F844207B680122FF
:101C1C0083F845207B68012283F83D200023184679
:101C2C000837BD4680BD000080B485B000AF786039
:101C3C007B6893F83D30DBB2012B01D0012335E0FA
:101C4C007B68022283F83D207B681B68DA687B681E
:101C5C001B6842F00102DA607B681B68164A9342EB
:101C6C0009D07B681B68B3F1804F04D07B681B687C
:101C7C00124A934211D17B681B689B6803F00703DF
:101C8C00FB60FB68062B10D07B681B681A687B68AE
:101C9C001B6842F001021A6007E07B681B681A6837
:101CAC007B681B6842F001021A6000231846143747
:101CBC00BD4680BC704700BF002C014000040040B2
:101CCC0080B584B000AF78607B681B68DB68FB6014
:101CDC007B681B681B69BB60BB6803F00203002BAD
:101CEC0020D0FB6803F00203002B1BD07B681B6821
:101CFC006FF002021A617B6801221A777B681B68FD
:101D0C009B6903F00303002B03D0786800F098F96B
:101D1C0005E0786800F08BF9786800F09AF97B6838
:101D2C0000221A77BB6803F00403002B20D0FB6859
:101D3C0003F00403002B1BD07B681B686FF00402BC
:101D4C001A617B6802221A777B681B689B6903F413
:101D5C004073002B03D0786800F072F905E07868C6
:101D6C0000F065F9786800F074F97B6800221A7746
:101D7C00BB6803F00803002B20D0FB6803F00803BA
:101D8C00002B1BD07B681B686FF008021A617B6804
:101D9C0004221A777B681B68DB6903F00303002BB2
:101DAC0003D0786800F04CF905E0786800F03FF952
:101DBC00786800F04EF97B6800221A77BB6803F054
:101DCC001003002B20D0FB6803F01003002B1BD05A
:101DDC007B681B686FF010021A617B6808221A7707
:101DEC007B681B68DB6903F44073002B03D07868B5
:101DFC0000F026F905E0786800F019F9786800F031
:101E0C0028F97B6800221A77BB6803F00103002BCA
:101E1C000CD0FB6803F00103002B07D07B681B6818
:101E2C006FF001021A617868FEF7C8FABB6803F01C
:101E3C008003002B0CD0FB6803F08003002B07D031
:101E4C007B681B686FF080021A61786800F06FFA8B
:101E5C00BB6803F04003002B0CD0FB6803F040037D
:101E6C00002B07D07B681B686FF040021A61786802
:101E7C0000F0F8F8BB6803F02003002B0CD0FB68D3
:101E8C0003F02003002B07D07B681B686FF0200247
:101E9C001A61786800F042FA00BF1037BD4680BD69
:101EAC0080B584B000AF786039600023FB737B6829
:101EBC0093F83C30012B01D10223B4E07B68012262
:101ECC0083F83C207B68022283F83D207B681B68EA
:101EDC009B68BB60BB6823F07703BB60BB6823F4D3
:101EEC007F43BB607B681B68BA689A603B681B6861
:101EFC00B3F5005F3ED0B3F5005F00F28780B3F519
:101F0C00805F00F08680B3F5805F7FD8702B1AD08D
:101F1C00702B7BD8602B50D0602B77D8502B3CD0BB
:101F2C00502B73D8402B58D0402B6FD8302B64D00B
:101F3C00302B6BD8202B60D0202B67D8002B5CD09B
:101F4C00102B5AD062E07B6818683B6899683B6834
:101F5C005A683B68DB6800F06AF97B681B689B6811
:101F6C00BB60BB6843F07703BB607B681B68BA68D7
:101F7C009A604FE07B6818683B6899683B685A68C0
:101F8C003B68DB6800F053F97B681B689A687B68D8
:101F9C001B6842F480429A603CE07B6818683B689E
:101FAC0059683B68DB681A4600F0CAF87B681B6806
:101FBC005021184600F021F92CE07B6818683B682A
:101FCC0059683B68DB681A4600F0E8F87B681B68C8
:101FDC006021184600F011F91CE07B6818683B681A
:101FEC0059683B68DB681A4600F0AAF87B681B68E6
:101FFC004021184600F001F90CE07B681A683B6838
:10200C001B681946104600F0F8F803E00123FB7337
:10201C0000E000BF7B68012283F83D207B68002232
:10202C0083F83C20FB7B18461037BD4680BD80B43E
:10203C0083B000AF786000BF0C37BD4680BC7047E2
:10204C0080B483B000AF786000BF0C37BD4680BC55
:10205C00704780B483B000AF786000BF0C37BD46CA
:10206C0080BC704780B483B000AF786000BF0C3781
:10207C00BD4680BC7047000080B485B000AF78606E
:10208C0039607B681B68FB607B682B4A934207D0E6
:10209C007B68B3F1804F03D07B68284A934208D108
:1020AC00FB6823F07003FB603B685B68FA681343C2
:1020BC00FB607B68204A934207D07B68B3F1804F6A
:1020CC0003D07B681D4A934208D1FB6823F440730C
:1020DC00FB603B68DB68FA681343FB60FB6823F02A
:1020EC0080023B685B691343FB607B68FA681A608B
:1020FC003B689A687B68DA623B681A687B689A620C
:10210C007B680D4A934203D13B681A697B681A635A
:10211C007B6801225A617B681B6903F00103002B69
:10212C0005D07B681B6923F001027B681A6100BF34
:10213C001437BD4680BC7047002C014000040040A1
:10214C0080B487B000AFF860B9607A60FB681B6A36
:10215C007B61FB681B6A23F00102FB681A62FB6857
:10216C009B693B613B6923F0F0033B617B681B017E
:10217C003A6913433B617B6923F00A037B617A69FB
:10218C00BB6813437B61FB683A699A61FB687A69A7
:10219C001A6200BF1C37BD4680BC704780B487B044
:1021AC0000AFF860B9607A60FB681B6A7B61FB6802
:1021BC001B6A23F01002FB681A62FB689B693B6187
:1021CC003B6923F470433B617B681B033A691343FF
:1021DC003B617B6923F0A0037B61BB681B017A69BF
:1021EC0013437B61FB683A699A61FB687A691A62EE
:1021FC0000BF1C37BD4680BC704780B485B000AFB3
:10220C00786039607B689B68FB60FB6823F0700327
:10221C00FB603A68FB68134343F00703FB607B6881
:10222C00FA689A6000BF1437BD4680BC704780B412
:10223C0087B000AFF860B9607A603B60FB689B6860
:10224C007B617B6923F47F437B613B681A027B686B
:10225C001A43BB6813437A6913437B61FB687A6941
:10226C009A6000BF1C37BD4680BC704780B485B0F7
:10227C0000AF786039607B6893F83C30012B01D15A
:10228C00022341E07B68012283F83C207B68022218
:10229C0083F83D207B681B685B68FB607B681B6870
:1022AC009B68BB60FB6823F07003FB603B681B689A
:1022BC00FA681343FB607B681B68FA685A607B689A
:1022CC001B68144A934209D07B681B68B3F1804F9A
:1022DC0004D07B681B68104A93420CD1BB6823F076
:1022EC008003BB603B685B68BA681343BB607B6868
:1022FC001B68BA689A607B68012283F83D207B6872
:10230C00002283F83C20002318461437BD4680BCBD
:10231C00704700BF002C01400004004080B483B023
:10232C0000AF786000BF0C37BD4680BC704780B4EE
:10233C0083B000AF786000BF0C37BD4680BC7047DF
:10234C0080B582B000AF78607B68002B01D101238F
:10235C0042E07B6893F84130DBB2002B06D17B68FE
:10236C00002283F840207868FEF778FA7B682422F4
:10237C0083F841207B681B68DA687B681B6822F451
:10238C000052DA60786800F063FD7B681B681A699C
:10239C007B681B6822F490421A617B681B685A693F
:1023AC007B681B6822F02A025A617B681B68DA681A
:1023BC007B681B6842F40052DA607B6800225A6426
:1023CC007B68202283F841207B68202283F84220FE
:1023DC007B6800225A63002318460837BD4680BD2F
:1023EC0080B58AB002AFF860B9603B601346FB80E1
:1023FC0000237B61FB6893F84130DBB2202B75D155
:10240C00BB68002B02D0FB88002B01D101236EE0AE
:10241C00FB6800225A64FB68212283F84120FEF7F6
:10242C002FFC7861FB68FA889A84FB68FA88DA8456
:10243C00FB689B68B3F5805F08D1FB681B69002BB8
:10244C0004D10023FB61BB68BB6103E0BB68FB618B
:10245C000023BB612EE03B6800937B690022802146
:10246C00F86800F001FB0346002B05D0FB68202226
:10247C0083F8412003233AE0FB69002B0BD1BB69A5
:10248C001B881A46FB681B68C2F308025A60BB69BA
:10249C000233BB6107E0FB691A78FB681B685A6062
:1024AC00FB690133FB61FB68DB8C9BB2013B9AB28D
:1024BC00FB68DA84FB68DB8C9BB2002BCBD13B68CE
:1024CC0000937B6900224021F86800F0CDFA0346A6
:1024DC00002B05D0FB68202283F84120032306E063
:1024EC00FB68202283F84120002300E002231846D9
:1024FC002037BD4680BD000080B5BAB000AF786013
:10250C007B681B681B68C7F8E4307B681B68DB685A
:10251C00C7F8E0307B681B685B69C7F8DC300023C8
:10252C00C7F8D8300023C7F8D430D7F8E43003F01C
:10253C000F03C7F8D830D7F8D830002B0FD1D7F805
:10254C00E43003F02003002B09D0D7F8E03003F07F
:10255C002003002B03D0786800F0BCFB5BE2D7F8BB
:10256C00D830002B00F0DE80D7F8DC3003F001030C
:10257C00002B06D1D7F8E03003F49073002B00F059
:10258C00D180D7F8E43003F00103002B0BD0D7F83F
:10259C00E03003F48073002B05D07B685B6C43F058
:1025AC0001027B685A64D7F8E43003F00403002B73
:1025BC000BD0D7F8DC3003F00103002B05D07B687F
:1025CC005B6C43F002027B685A64D7F8E43003F08A
:1025DC000203002B0BD0D7F8DC3003F00103002BE7
:1025EC0005D07B685B6C43F004027B685A64D7F8B7
:1025FC00E43003F00803002B11D0D7F8E03003F0DF
:10260C002003002B05D1D7F8DC3003F00103002B9D
:10261C0005D07B685B6C43F008027B685A647B686E
:10262C005B6C002B00F0F281D7F8E43003F0200350
:10263C00002B08D0D7F8E03003F02003002B02D099
:10264C00786800F047FB7B681B685B6903F040030C
:10265C00002B14BF01230023DBB2C7F8D4307B68F6
:10266C005B6C03F00803002B03D1D7F8D430002B9C
:10267C004FD0786800F051FA7B681B685B6903F0F7
:10268C004003002B41D07B681B681433C7F89C3087
:10269C00D7F89C3053E8003FC7F89830D7F89830FB
:1026AC0023F04003C7F8D0307B681B681433D7F88D
:1026BC00D020C7F8A820C7F8A430D7F8A410D7F8B2
:1026CC00A82041E80023C7F8A030D7F8A030002B91
:1026DC00D9D17B68DB6B002B13D07B68DB6B7E4A1C
:1026EC005A637B68DB6B1846FEF71CFC0346002B19
:1026FC0016D07B68DB6B5B6B7A68D26B10469847A5
:10270C000EE0786800F09CF90AE0786800F098F91F
:10271C0006E0786800F094F97B6800225A6475E151
:10272C0000BF73E17B681B6B012B40F04F81D7F826
:10273C00E43003F01003002B00F04881D7F8E030B0
:10274C0003F01003002B00F041810023BB607B6879
:10275C001B681B68BB607B681B685B68BB60BB68E5
:10276C007B681B685B6903F04003002B00F0B680AC
:10277C007B68DB6B1B685B68A7F8BE30B7F8BE30B4
:10278C00002B00F045817B689B8DB7F8BE209A42E8
:10279C0080F03E817B68B7F8BE20DA857B68DB6B06
:1027AC009B69202B00F088807B681B680C33C7F872
:1027BC008830D7F8883053E8003FC7F88430D7F812
:1027CC00843023F48073C7F8B8307B681B680C33F3
:1027DC00D7F8B820C7F89420C7F89030D7F89010E5
:1027EC00D7F8942041E80023C7F88C30D7F88C3008
:1027FC00002BD9D17B681B6814337B677B6F53E844
:10280C00003F3B673B6F23F00103C7F8B4307B6894
:10281C001B681433D7F8B420C7F88020FB67F96F16
:10282C00D7F8802041E80023BB67BB6F002BE1D1B8
:10283C007B681B6814333B663B6E53E8003FFB65BB
:10284C00FB6D23F04003C7F8B0307B681B68143372
:10285C00D7F8B020FA66BB66B96EFA6E41E8002371
:10286C007B667B6E002BE3D17B68202283F84220B1
:10287C007B6800221A637B681B680C33FB64FB6C5F
:10288C0053E8003FBB64BB6C23F01003C7F8AC30BB
:10289C007B681B680C33D7F8AC20BA657B65796D07
:1028AC00BA6D41E800233B653B6D002BE3D17B689F
:1028BC00DB6B1846FEF7FBFA7B6802225A637B68D7
:1028CC009A8D7B68DB8D9BB2D31A9BB219467868C4
:1028DC0000F0BFF89CE000BFEB2B00087B689A8DE2
:1028EC007B68DB8D9BB2D31AA7F8CE307B68DB8D6F
:1028FC009BB2002B00F08E80B7F8CE30002B00F08E
:10290C0089807B681B680C33BB63BB6B53E8003F4F
:10291C007B637B6B23F49073C7F8C8307B681B68B0
:10292C000C33D7F8C8207A643B64396C7A6C41E874
:10293C000023FB63FB6B002BE3D17B681B68143318
:10294C007B627B6A53E8003F3B623B6A23F00103E6
:10295C00C7F8C4307B681B681433D7F8C4203A63BB
:10296C00FB62F96A3A6B41E80023BB62BB6A002B3D
:10297C00E3D17B68202283F842207B6800221A6313
:10298C007B681B680C333B613B6953E8003FFB6081
:10299C00FB6823F01003C7F8C0307B681B680C334E
:1029AC00D7F8C020FA61BB61B969FA6941E8002324
:1029BC007B617B69002BE3D17B6802225A63B7F8F9
:1029CC00CE301946786800F044F823E0D7F8E430AC
:1029DC0003F08003002B09D0D7F8E03003F080031C
:1029EC00002B03D0786800F00EF914E0D7F8E4302F
:1029FC0003F04003002B0ED0D7F8E03003F0400377
:102A0C00002B08D0786800F04DF904E000BF02E01C
:102A1C0000BF00E000BFE837BD4680BD80B483B086
:102A2C0000AF786000BF0C37BD4680BC704780B4E7
:102A3C0083B000AF786000BF0C37BD4680BC7047D8
:102A4C0080B483B000AF786000BF0C37BD4680BC4B
:102A5C00704780B483B000AF78600B467B8000BFBA
:102A6C000C37BD4680BC704780B586B000AFF860AF
:102A7C00B9603B601346FB713BE03B6AB3F1FF3F2F
:102A8C0037D0FEF7FDF802463B68D31A3A6A9A42F1
:102A9C0002D33B6A002B01D103233AE0FB681B688D
:102AAC00DB6803F00403002B23D0BB68802B20D001
:102ABC00BB68402B1DD0FB681B681B6803F0080328
:102ACC00082B16D100237B61FB681B681B687B619C
:102ADC00FB681B685B687B617B69F86800F01DF81C
:102AEC00FB6808225A64FB68002283F8402001230B
:102AFC000FE0FB681B681A68BB681340BA689A42FF
:102B0C000CBF01230023DBB21A46FB799A42B4D0E6
:102B1C00002318461837BD4680BD80B495B000AF71
:102B2C0078607B681B680C337B637B6B53E8003FDE
:102B3C003B633B6B23F49073FB647B681B680C3327
:102B4C00FA6C3A64FB63F96B3A6C41E80023BB63A3
:102B5C00BB6B002BE5D17B681B6814333B623B6A73
:102B6C0053E8003FFB61FB6923F00103BB647B6806
:102B7C001B681433BA6CFA62BB62B96AFA6A41E830
:102B8C0000237B627B6A002BE5D17B681B6B012BDE
:102B9C0019D17B681B680C33FB60FB6853E8003F62
:102BAC00BB60BB6823F010037B647B681B680C3331
:102BBC007A6CBA617B617969BA6941E800233B613F
:102BCC003B69002BE5D17B68202283F842207B688F
:102BDC0000221A6300BF5437BD4680BC704780B5D5
:102BEC0084B000AF78607B685B6AFB60FB68002296
:102BFC00DA85FB680022DA84F868FFF721FF00BF52
:102C0C001037BD4680BD80B485B000AF78607B685E
:102C1C0093F84130DBB2212B3ED17B689B68B3F536
:102C2C00805F14D17B681B69002B10D17B681B6AF9
:102C3C00FB60FB681B881A467B681B68C2F30802A2
:102C4C005A607B681B6A9A1C7B681A6208E07B6876
:102C5C001B6A591C7A6811621A787B681B685A6067
:102C6C007B68DB8C9BB2013B9BB27A681946D184A2
:102C7C00002B0FD17B681B68DA687B681B6822F01D
:102C8C008002DA607B681B68DA687B681B6842F03C
:102C9C004002DA60002300E0022318461437BD46D8
:102CAC0080BC704780B582B000AF78607B681B68D1
:102CBC00DA687B681B6822F04002DA607B682022AD
:102CCC0083F841207868FFF7A9FE002318460837DF
:102CDC00BD4680BD80B58CB000AF78607B6893F842
:102CEC004230DBB2222B40F0AE807B689B68B3F5A0
:102CFC00805F17D17B681B69002B13D10023FB620B
:102D0C007B689B6ABB627B681B685B689BB2C3F386
:102D1C0008039AB2BB6A1A807B689B6A9A1C7B6810
:102D2C009A6226E07B689B6AFB620023BB627B682D
:102D3C009B68B3F5805F07D07B689B68002B0AD13A
:102D4C007B681B69002B06D17B681B685B68DAB259
:102D5C00FB6A1A7008E07B681B685B68DBB203F0E7
:102D6C007F03DAB2FB6A1A707B689B6A5A1C7B6819
:102D7C009A627B68DB8D9BB2013B9BB27A681946E9
:102D8C00D185002B5DD17B681B68DA687B681B687A
:102D9C0022F02002DA607B681B68DA687B681B68AB
:102DAC0022F48072DA607B681B685A697B681B6846
:102DBC0022F001025A617B68202283F842207B6852
:102DCC0000225A637B681B6B012B35D17B68002278
:102DDC001A637B681B680C337B617B6953E8003F8B
:102DEC003B613B6923F010037B627B681B680C33EF
:102DFC007A6A3A62FB61F9693A6A41E80023BB617D
:102E0C00BB69002BE5D17B681B681B6803F01003C2
:102E1C00102B0AD10023FB607B681B681B68FB60CE
:102E2C007B681B685B68FB60FB687B689B8D194645
:102E3C007868FFF70EFE02E07868FFF7F8FD0023D4
:102E4C0002E0002300E0022318463037BD4680BD67
:102E5C0080B584B000AF78607B681B681B6923F475
:102E6C0040517B68DA687B681B680A431A617B688F
:102E7C009A687B681B691A437B685B691343BB6068
:102E8C007B681B68DB6823F4B05323F00C037A686F
:102E9C001268B9680B43D3607B681B685B6923F4C9
:102EAC0040717B689A697B681B680A435A617B682E
:102EBC001B682C4A934203D1FEF734FEF86002E003
:102ECC00FEF71CFEF860FA6813469B0013449A0048
:102EDC001A447B685B689B00B2FBF3F3224AA2FBAB
:102EEC0003235B091901FA6813469B0013449A00EB
:102EFC001A447B685B689B00B2FBF3F21A4BA3FB92
:102F0C0002035B09642000FB03F3D31A1B01323369
:102F1C00154AA2FB03235B0903F0F0031944FA687A
:102F2C0013469B0013449A001A447B685B689B0011
:102F3C00B2FBF3F20C4BA3FB02035B09642000FB16
:102F4C0003F3D31A1B013233074AA2FB03235B0999
:102F5C0003F00F027B681B680A449A6000BF1037AD
:102F6C00BD4680BD003801401F85EB51014B1868F0
:102F7C00704700BF0C00002070B500260C4D0D4CA6
:102F8C00641BA410A64209D100F082FF00260A4D52
:102F9C000A4C641BA410A64205D170BD55F8043B25
:102FAC0098470136EEE755F8043B98470136F2E7AF
:102FBC0004400008044000080440000808400008D1
:102FCC0003460244934200D1704703F8011BF9E712
:102FDC000FB40A4B13B51C6824B1A36913B920466E
:102FEC0000F066F805AB2046049AA168019300F046
:102FFC0081F902B0BDE8104004B070470C0000200D
:10300C00002310B50446C0E90033C0E904338360E3
:10301C0081814366C2818361194608225C30FFF7C7
:10302C00CFFF054B24626362044BA362044BE36243
:10303C00044B236310BD00BFAD380008CF38000827
:10304C00073900082B390008014900F0AFB800BF60
:10305C00053C000870B568254A1E55430E4605F11F
:10306C00740100F0C5F8044640B10021C0E9001617
:10307C000C30A06005F16802FFF7A2FF204670BD7E
:10308C00014800F0B3B800BFDC010020014800F09B
:10309C00AEB800BFDC010020014800F0A7B800BFAB
:1030AC00D7010020014800F0A2B800BFD7010020D2
:1030BC0010B50446FFF7F0FFA3691BB1BDE8104043
:1030CC00FFF7F0BFC4E912332365134B134A1B6897
:1030DC00A262A34208BF0123204608BFA36100F0EF
:1030EC001FF86060204600F01BF8A060204600F03E
:1030FC0017F800220421E0606068FFF781FF0122CD
:10310C000921A068FFF77CFF02221221E068FFF77B
:10311C0077FF0123A361D1E76C3F0008553000080D
:10312C00F8B50746FFF7ACFF1E4B1E68B36913B921
:10313C003046FFF7BDFF4836D6E90134013B03D5D5
:10314C0033680BB33668F7E7B4F90C50D5B9164BA6
:10315C0004F15800E360656600F047F8FFF796FF4E
:10316C0008222946C4E90155C4E904552560A56126
:10317C0004F15C00FFF724FFC4E90D55C4E91255B6
:10318C002046F8BD6834D9E704213846FFF762FFC2
:10319C00044630600028D5D1FFF778FF0C233B6044
:1031AC00EEE700BF6C3F00080100FFFF2DE9F8437C
:1031BC0006468846002700F14804D4E90195B9F188
:1031CC00010905D52468002CF7D13846BDE8F883F1
:1031DC00AB89012B07D9B5F90E30013303D0294641
:1031EC003046C04707436835E9E77047704770477A
:1031FC00F8B5CD1C25F0030508350C2D38BF0C2572
:10320C00002D064601DBA94203D90C2333600020B4
:10321C00F8BD00F0B1FD21490A6814469CB9204F55
:10322C003B6823B92146304600F02AFB386029461A
:10323C00304600F025FB431C23D10C233046336071
:10324C0000F0A0FDE3E723685B1B17D40B2B03D91D
:10325C0023601C44256004E06368A2420CBF0B6031
:10326C005360304600F08EFD04F10B00231D20F05E
:10327C000700C21ACCD01B1AA350C9E722466468B7
:10328C00CCE7C41C24F00304A042E3D0211A30463E
:10329C0000F0F6FA0130DDD1CFE700BF9800002036
:1032AC009C000020936810B4013B002B936007DA5C
:1032BC009469A34201DB0A2902D110BC00F034BB93
:1032CC001368581C10601970084610BC7047F8B58C
:1032DC0006460F461446D518AC4201D1002007E033
:1032EC003A46304614F8011BFFF7DCFF431CF3D1C0
:1032FC00F8BD00002DE9F04F0D46144698460646E1
:10330C009DB018B183690BB9FFF7D2FE894B9D4272
:10331C001BD175686B6ED90705D4AB899A0502D49D
:10332C00A86DFFF763FFAB891B0701D52B69EBB9C0
:10333C002946304600F05CFBC0B16B6EDC070ED545
:10334C004FF0FF301DB0BDE8F08F7B4B9D4201D19B
:10335C00B568DFE7794B9D4208BFF568DAE7AB89C2
:10336C009805EDD4A86DFFF742FFE9E70023099318
:10337C0020238DF8293030234FF00109CDF80C8033
:10338C00DFF8BC818DF82A3023469A4613F8012BBE
:10339C000AB1252AF9D1BAEB040B0BD05B462246B5
:1033AC0029463046FFF793FF013000F0AA80099AB6
:1033BC005A4409929AF80030002B00F0A2800023A6
:1033CC004FF0FF32CDE905230AF1010A049307936C
:1033DC008DF853301A935446052214F8011B5848A3
:1033EC0000F0BCFC049AD8B9D10644BF20238DF858
:1033FC005330130744BF2B238DF853309AF8003009
:10340C002A2B15D0544600204FF00A0C079A21465F
:10341C0011F8013B303B092B4ED9B0B1079214E0A7
:10342C00A0EB080309FA03F31343A2460493D2E773
:10343C00039B191D1B680391002BBBBF5B4242F021
:10344C00020207930793B8BF049223782E2B0CD15A
:10345C0063782A2B35D1039B02341A1D1B68039207
:10346C00002BB8BF4FF0FF330593DFF8E4A0032225
:10347C005046217800F072FC40B14023A0EB0A00CA
:10348C0003FA00F0049B01340343049314F8011B6A
:10349C0006222C488DF8281000F060FC00283FD044
:1034AC00294B1BBB039B073323F007030833039300
:1034BC00099B3B44099367E70C4601200CFB023245
:1034CC00A5E700234FF00A0C19460134059320465A
:1034DC0010F8012B303A092A03D9002BC5D00591DD
:1034EC00C3E7044601230CFB0121F0E703AB009377
:1034FC002A463046154B04A9AFF300800746781CCA
:10350C00D6D16B6ED90705D4AB899A0502D4A86DB8
:10351C00FFF76DFEAB895B063FF512AF099811E71B
:10352C0003AB00932A463046084B04A900F082F8FE
:10353C00E4E700BF903F0008B03F0008703F000870
:10354C00D03F0008DA3F000800000000DB32000822
:10355C00D63F00082DE9F047164699468A680B6954
:10356C0007469342B8BF1346336091F843200C468C
:10357C00DDF820800AB1013333602368990642BF1D
:10358C00336802333360256815F0060506D104F163
:10359C00190AE36832689B1AAB4228DC94F8432082
:1035AC00131E226818BF012392062DD449463846B3
:1035BC0004F14302C047013020D02368E56803F0D2
:1035CC000603042B18BF002532684FF00006A368D1
:1035DC0008BFAD1A226908BF25EAE5759342C4BF3E
:1035EC009B1AED181A34B5421AD1002008E00123B9
:1035FC00524649463846C047013003D14FF0FF30A0
:10360C00BDE8F0870135C4E73020E11881F84300AC
:10361C005A1C94F845102244023382F84310C5E733
:10362C000123224649463846C0470130E6D00136D0
:10363C00D9E700002DE9FF470C46277E9146782FED
:10364C0080469A460C9904F1430207D8622F0AD897
:10365C00002F00F0D980582F00F0A48004F142060E
:10366C0084F842703AE0A7F16303152BF6D801A059
:10367C0050F823F0D9360008ED36000869360008FA
:10368C00693600086936000869360008ED3600080E
:10369C006936000869360008693600086936000882
:1036AC00FB3700081D370008DD37000869360008B5
:1036BC00693600081D380008693600081D370008F7
:1036CC006936000869360008E53700080B6804F114
:1036DC0042061A1D1B680A6084F842300123A4E0DC
:1036EC00256808682E0600F104030AD505680B60EE
:1036FC00002D03DA2D236D4284F843300A235E48F3
:10370C0019E015F0400F05680B6018BF2DB2EFE7FC
:10371C000B682568181D0860280601D51D6802E095
:10372C006906FBD51D886F2F0CBF08230A2352484E
:10373C00002184F843106668002EA8BF2168A6609B
:10374C00A4BF21F0040121600DB9002E4DD0164606
:10375C00B5FBF3F103FB1157C75D06F8017D2F464E
:10376C00BB420D46F4D9082B0BD12368DF0708D5D3
:10377C00236961689942DEBF302306F8013C06F1EB
:10378C00FF36921B22614B4621464046CDF800A0E5
:10379C0003AAFFF7DFFE01304CD14FF0FF3004B02D
:1037AC00BDE8F087344884F845700E68236856F8F5
:1037BC00045B1F060E6014D5D90744BF43F02003E9
:1037CC0023601DB9236823F0200323601023AFE787
:1037DC00236843F0200323607823284884F845307D
:1037EC00E3E75E0648BFADB2E6E71646BBE70B68FB
:1037FC0026681D1D60690D6035061B6801D51860B3
:10380C0002E07106FBD51880002316462361BAE747
:10381C000B681A1D0A601E6800213046626800F0B1
:10382C009DFA08B1801B606063682361002384F8F3
:10383C004330A8E73246494640462369D047013019
:10384C00ABD023689B0713D4E068039B9842B8BFA6
:10385C001846A4E70123324649464046D04701307A
:10386C009BD00135E36803995B1AAB42F2DCEBE7C2
:10387C00002504F11906F5E7E13F0008F23F0008C6
:10388C0038B50023054D044608462B60FDF7C4F8F7
:10389C00431C02D12B6803B1236038BDE00100202A
:1038AC0010B50C46B1F90E1000F0BEFA0028ABBFF3
:1038BC00636DA3891B1823F48053ACBF6365A3818C
:1038CC0010BD2DE9F0411F468B890546DB050C46E2
:1038DC00164605D502230022B1F90E1000F0C8F9E6
:1038EC00A389324623F48053A38128463B46B4F97E
:1038FC000E10BDE8F04100F069B810B50C46B1F9F6
:10390C000E1000F0B5F9431CA38915BF606523F4B4
:10391C00805343F48053A38118BFA38110BDB1F928
:10392C000E1000F0D3B80000F8B50E46144605464C
:10393C0018B183690BB9FFF7BBFB214B9C422BD110
:10394C006C68A369A360A3891A072FD523696BB38D
:10395C0023692068F6B2C01A63693746834204DCD7
:10396C002146284600F048F930BBA3680130013BE2
:10397C00A36023685A1C22601E706369834204D0C2
:10398C00A389DB0706D50A2E04D12146284600F070
:10399C0033F988B93846F8BD0A4B9C4201D1AC6862
:1039AC00CFE7094B9C4208BFEC68CAE72146284682
:1039BC0000F01EF80028CBD04FF0FF37EAE700BF2D
:1039CC00903F0008B03F0008703F000838B504462F
:1039DC00084611460022054D2A601A46FDF758F894
:1039EC00431C02D12B6803B1236038BDE0010020D9
:1039FC00324B70B51D6806460C4625B1AB6913B940
:103A0C002846FFF755FB2E4B9C420FD16C68A389BF
:103A1C00B4F90C2019072CD4DD0611D4092333601A
:103A2C0042F040034FF0FF30A3813EE0254B9C4217
:103A3C0001D1AC68EBE7244B9C4208BFEC68E6E78D
:103A4C00580712D5616B41B104F14403994202D07D
:103A5C00304600F09DF900236363A38923F024030F
:103A6C00A3810023636023692360A38943F00803C7
:103A7C00A38123694BB9A38903F42073B3F5007FA9
:103A8C0003D02146304600F029F9A089B4F90C2066
:103A9C0010F001030AD00023A36063695B42A361A9
:103AAC00236943B910F08000BAD170BD810758BFAB
:103ABC006369A360F4E70020F7E700BF0C00002067
:103ACC00903F0008B03F0008703F000838B5002355
:103ADC00054D044608462B60FCF76DFF431C02D1D4
:103AEC002B6803B1236038BDE00100208A892DE9E1
:103AFC00F041054610070C4658D44B68002B05DCEA
:103B0C000B6C002B02DC0020BDE8F081E66A002E75
:103B1C00F9D0002312F480522F682B6032D0606DE4
:103B2C00A3895A0705D56368C01A636B0BB1236C64
:103B3C00C01A00230246E66A2846216AB047431C95
:103B4C00A38906D129681D292CD82A4ACA40D60730
:103B5C0028D5002262602269D904226004D5421C57
:103B6C0001D12B6803B96065616B2F600029CAD045
:103B7C0004F14403994202D0284600F009F90020D0
:103B8C006063C1E7216A01232846B047411CC7D1B5
:103B9C002B68002BC4D01D2B01D0162B01D12F600C
:103BAC00B1E7A38943F04003A381ADE70F69002F70
:103BBC00A9D0930718BF00230E6808BF4B69A6EB6A
:103BCC0007080F608B60B8F1000F9CDD43463A4646
:103BDC002846216AA66AB047002806DCA3894FF064
:103BEC00FF3043F04003A3818EE70744A8EB0008A5
:103BFC00E9E700BF0100402038B50B6905460C46CB
:103C0C0013B90025284638BD18B183690BB9FFF7E5
:103C1C004FFA144B9C421BD16C68B4F90C30002B3E
:103C2C00EFD0626ED00704D4990502D4A06DFFF7D3
:103C3C00DDFA28462146FFF759FF636E0546DA0781
:103C4C00E0D4A3899B05DDD4A06DFFF7D0FAD9E7AA
:103C5C00054B9C4201D1AC68DFE7044B9C4208BF8A
:103C6C00EC68DAE7903F0008B03F0008703F0008AE
:103C7C0038B50446084611460022054D2A601A46FE
:103C8C00FCF7BDFE431C02D12B6803B1236038BD89
:103C9C00E001002070B50E46B1F90E101446002953
:103CAC001D4696B007DA00232B60B3891A0610D490
:103CBC004FF480630EE06A4600F0C8F80028F2DB8F
:103CCC00019A02F47042A2F500535A425A412A60FA
:103CDC00EEE740230020236016B070BD8B8973B5CE
:103CEC009D0706460C4607D504F147032360236164
:103CFC000123636102B070BD6A4601ABFFF7CAFFD6
:103D0C00009905463046FFF773FA48B9B4F90C3000
:103D1C009A05EFD423F0030343F00203A381E3E7F6
:103D2C000D4BB362A389206043F08003A381009BF9
:103D3C0020616361019B5BB13046B4F90E1000F059
:103D4C0097F828B1A38923F0030343F00103A3815F
:103D5C00A0890543A581CDE755300008034610B571
:103D6C00C9B202449342184601D1002003E0047802
:103D7C0001338C42F6D110BD0148FFF737BA00BFB2
:103D8C00D80100200148FFF732BA00BFD80100204B
:103D9C0038B50546002943D051F8043C0C1F002BC4
:103DAC00B8BFE418FFF7E8FF1E4A1368104633B992
:103DBC00636014602846BDE83840FFF7E3BFA342B8
:103DCC000AD921686218934201BF1A685B685218BD
:103DDC00226063600460EDE71A465B680BB1A34296
:103DEC00FAD911685018A0420BD120680144501820
:103DFC0083421160DED118685B6801441160536026
:103E0C00D8E702D90C232B60D4E7206821188B4209
:103E1C0001BF19685B680918216063605460C9E7C9
:103E2C0038BD00BF9800002038B50446084611463E
:103E3C000022054D2A601A46FCF7A0FD431C02D156
:103E4C002B6803B1236038BDE001002038B5002396
:103E5C00064D0446084611462B60FCF7B7FD431C83
:103E6C0002D12B6803B1236038BD00BFE0010020F4
:103E7C0038B50023054D044608462B60FCF7B5FD0C
:103E8C00431C02D12B6803B1236038BDE001002034
:103E9C00F8B500BFF8BC08BC9E467047F8B500BF2B
:083EAC00F8BC08BC9E467047FB
:103EB40057686974652072756E6E696E67206174E7
:103EC4003A20256C75206D730D0A000050696E6BE5
:103ED4002072756E6E696E672061743A20256C7568
:103EE400206D730D0A0000005265642072756E6EB9
:103EF400696E672061743A20256C75206D730D0A14
:103F04000000000059656C6C6F772072756E6E69E5
:103F14006E672061743A20256C75206D730D0A005C
:103F2400477265656E2072756E6E696E6720617486
:103F34003A20256C75206D730D0A00000000000006
:103F44000000000001020304060708090000000045
:103F54000102030402030405060708090A0B0C0DF9
:103F64000E0F1010010200001000002000000000DD
:103F7400000000000000000000000000000000003D
:103F8400000000000000000000000000000000002D
:103F9400000000000000000000000000000000001D
:103FA400000000000000000000000000000000000D
:103FB40000000000000000000000000000000000FD
:103FC400000000000000000000000000232D302B42
:103FD4002000686C4C006566674546470030313206
:103FE400333435363738394142434445460030315D
:103FF40032333435363738396162636465660000BC
:04400400310100087E
:044008000D0100089E
:10400C0000127A00100000000100000010000020D7
:10401C0000000000903F0008B03F0008703F00080F
:10402C000000000000000000000000000000000084
:10403C000000000000000000000000000000000074
:10404C000000000000000000000000000000000064
:10405C000000000000000000000000000000000054
:10406C000000000000000000000000000000000044
:0400000508000B9153
:00000001FF
